:100000000C94E3000C940B010C940B010C940B0169
:100010000C940B010C940B010C940B010C940B0130
:100020000C940B010C940B010C940B010C940B0120
:100030000C940B010C940B010C940B010C940B0110
:100040000C94B8080C940B010C9424050C945605E0
:100050000C940B010C940B010C940B010C940B01F0
:100060000C940B010C940B0100000008000201002D
:100070000003040700000000000000000102040863
:100080001020408001020408102001020408102002
:10009000040404040404040402020202020203032E
:1000A00003030303000000002300260029000000D2
:1000B0000000250028002B0000000000240027007D
:1000C0002A00005EBCE2613FDD83C29C7E20A3FD6E
:1000D0001F419DC3217FFCA2401E5F01E3BD3E6026
:1000E00082DC237D9FC1421CFEA0E1BF5D0380DE58
:1000F0003C62BEE0025CDF81633D7C22C09E1D430A
:10010000A1FF4618FAA427799BC584DA3866E5BBB7
:100110005907DB856739BAE406581947A5FB7826E5
:10012000C49A653BD987045AB8E6A7F91B45C69817
:100130007A24F8A6441A99C7257B3A6486D85B05C9
:10014000E7B98CD2306EEDB3510F4E10F2AC2F7177
:1001500093CD114FADF3702ECC92D38D6F31B2ECA5
:100160000E50AFF1134DCE90722C6D33D18F0C52D7
:10017000B0EE326C8ED0530DEFB1F0AE4C1291CF89
:100180002D73CA947628ABF517490856B4EA693737
:10019000D58B5709EBB536688AD495CB2977F4AA65
:1001A0004816E9B7550B88D6346A2B7597C94A1497
:1001B000F6A8742AC896154BA9F7B6E80A54D78949
:1001C0006B357401860511241FBECFEFD8E0DEBF6A
:1001D000CDBF11E0A0E0B1E0EEEEFBE202C0059081
:1001E0000D92AE39B107D9F722E0AEE9B1E001C016
:1001F0001D92AE3BB207E1F711E0C6ECD1E004C0BE
:100200002297FE010E947D13C23CD107C9F70E94CC
:10021000A9080C94F5150C94000026E040E855E27E
:1002200060E070E083E192E00E94C20440ED57E09C
:1002300060E070E083E192E00E94D40720E042E0B9
:1002400060E18BEF91E00E944F108AED91E00E94F7
:10025000BF0D61E0809118010E94C70961E08091A3
:1002600016010E94C70949E066E271E08AED91E05B
:100270000E94490D49E06EE271E08AED91E00C9434
:10028000490D0F931F93CF93DF938C01EC01CC0F9B
:10029000DD1FC65EDE4F7983688366E371E083E12C
:1002A00092E00E9407064AE050E0B80183E192E044
:1002B0000E94C70666E771E083E192E00E940706AC
:1002C000688179814AE050E083E192E0DF91CF914B
:1002D0001F910F910C94CF06BC018AED91E00E9412
:1002E000550F0E940B120895CF92EF920F9332E0B8
:1002F000C32E43E0E42E04E025E04BE06CE08BEFFE
:1003000091E00E940A1169E08DEE91E00E94640B79
:100310006DEE71E08AED91E00F91EF90CF900C942B
:100320002C0C4F925F926F927F928F929F92AF921E
:10033000BF92CF92DF92EF92FF920F931F93CF93D2
:10034000DF9300D000D000D0CDB7DEB70E94020905
:100350000091A6011091A7012091A8013091A90157
:10036000601B710B820B930B00910A0110910B0122
:1003700020910C0130910D01061717072807390746
:1003800008F03FC08AED91E00E94910E86E291E074
:100390000E946C010E943E126093C6017093C701D7
:1003A0008093C8019093C9018EE291E00E946C0194
:1003B0000E943E126093CA017093CB018093CC01DE
:1003C0009093CD011EC08091B2018930D0F483E1B9
:1003D00092E00E94F8038093B301E091B201AE2F46
:1003E000B0E0AC54BE4F8C93EF5FE093B201F0E00D
:1003F000EC54FE4F10826AE070E080E090E00E94D2
:10040000310983E192E00E94DF0318161906DCF23D
:1004100004EB11E08091B4018337B1F567E771E037
:10042000CE0101960E9448086091B601CE01019666
:100430000E948A086091B701CE0101960E948A0845
:100440008091B501992787FD9095C0979093C10140
:100450008093C001CE0101960E949D087093BF0158
:100460006093BE018091C0019091C1010E94410141
:100470001092B2018AE0F80111928A95E9F7CE0153
:1004800001960E94DA073EC08736E1F48091B501FB
:10049000992787FD9095C0979093C1018093C001E3
:1004A000FC01EE0FFF1FEE0FFF1FEE53FE4F6081AA
:1004B0007181828193810E940B127093BF016093BE
:1004C000BE0113C08636F1F48091B501992787FDEE
:1004D0009095C0979093C1018093C001FC01EE0FED
:1004E000FF1FE65EFE4F608171814AE050E083E1CC
:1004F00092E00E94CF061092B2018AE0F8011192B8
:100500008A95E9F70E9402092B013C01C090C601BF
:10051000D090C701E090C801F090C90160911C0122
:1005200070911D01882777FD8095982F0E943E12BB
:100530004B015C019B01AC01C701B6010E94EE12A8
:10054000181654F58091AE019091AF01A091B001C1
:10055000B091B101B301A201481B590B6A0B7B0B8F
:1005600080910E0190910F01A0911001B0911101A5
:1005700084179507A607B7077CF41092150110920F
:1005800014010E9402096093AE017093AF01809341
:10059000B0019093B1010EC0A5019401C701B6014D
:1005A0000E949F11181634F081E090E0909315019D
:1005B00080931401C090CA01D090CB01E090CC018F
:1005C000F090CD0160911E0170911F01882777FD89
:1005D0008095982F0E943E124B015C019B01AC015B
:1005E000C701B6010E94EE12181644F58091AA01C7
:1005F0009091AB01A091AC01B091AD01481A590A9C
:100600006A0A7B0A80910E0190910F01A09110015E
:10061000B091110184159505A605B7057CF40E94DB
:1006200002096093AA017093AB018093AC0190938F
:10063000AD0110921301109212010EC0A501940198
:10064000C701B6010E949F11181634F081E090E0B6
:10065000909313018093120160911401809118010D
:100660000E94000A60911201809116010E94000A06
:100670000E9402090091A2011091A3012091A401FE
:100680003091A501601B710B820B930B0091060149
:1006900010910701209108013091090106171707F1
:1006A0002807390708F046C040E065E08BEF91E08D
:1006B0000E94351062E571E08BEF91E00E94070621
:1006C0004091C6015091C7016091C8017091C90164
:1006D00022E030E08BEF91E00E94D20760E671E00B
:1006E0008BEF91E00E94070643E06EE08BEF91E014
:1006F0000E94351062E671E08BEF91E00E940706E0
:1007000060911C0170911D014AE050E08BEF91E077
:100710000E94C70660E671E08BEF91E00E94070639
:100720000E9402096093A2017093A3018093A40127
:100730009093A5010E94020900919E0110919F01D2
:100740002091A0013091A101601B710B820B930BD2
:1007500000910601109107012091080130910901D3
:10076000061717072807390798F40FE110E08BEFF9
:1007700091E00E9430110E94020960939E017093E3
:100780009F018093A0019093A1010150110979F775
:1007900026960FB6F894DEBF0FBECDBFDF91CF9186
:1007A0001F910F91FF90EF90DF90CF90BF90AF908F
:1007B0009F908F907F906F905F904F900895FC0175
:1007C000818D228D90E0805C9F4F821B91098F73F9
:1007D00099270895FC01918D828D981731F0828DB3
:1007E000E80FF11D858D90E008958FEF9FEF08953C
:1007F000FC01918D828D981761F0828DDF01A80F29
:10080000B11D5D968C91928D9F5F9F73928F90E04A
:1008100008958FEF9FEF08958CE795E0892B49F0BD
:1008200080E090E0892B29F00E947C0581110C94D6
:1008300000000895FC01848DDF01A80FB11DA35AAB
:10084000BF4F2C91848D90E001968F739927848FF0
:10085000A689B7892C93A089B1898C9180648C93E7
:10086000938D848D981306C00288F389E02D8081D2
:100870008F7D80830895CF93DF93EC01888D88234B
:10088000C9F0EA89FB89808185FD05C0A889B989FD
:100890008C9186FD0FC00FB607FCF5CF808185FFD8
:1008A000F2CFA889B9898C9185FFEDCFCE010E9446
:1008B0001A04E7CFDF91CF910895CF92DF92FF9294
:1008C0000F931F93CF93DF931F92CDB7DEB76C01C9
:1008D000DC015B969C915B975C968C915C9798137E
:1008E00007C05096ED91FC915197808185FD32C0F3
:1008F000F601038D10E00F5F1F4F0F731127F02ECD
:10090000F601848DF81211C00FB607FCF9CFD6019D
:100910005096ED91FC915197808185FFF1CFC601F2
:1009200069830E941A046981EBCF838DE80FF11D62
:10093000E35AFF4F6083D6015B960C935B97529608
:10094000ED91FC91539780818062808381E058967D
:100950008C930DC0D6015696ED91FC91579760830C
:100960005096ED91FC91519780818064808381E065
:1009700090E00F90DF91CF911F910F91FF90DF904A
:10098000CF900895BF92CF92DF92EF92FF92CF93D4
:10099000DF93EC016A017B01B22EE889F98982E0DC
:1009A0008083411581EE580761057105A1F060E073
:1009B00079E08DE390E0A70196010E945913215040
:1009C00031094109510956954795379527952115C4
:1009D00080E1380798F0E889F989108260E874E8C6
:1009E0008EE190E0A70196010E9459132150310930
:1009F000410951095695479537952795EC85FD8511
:100A00003083EE85FF852083188EEC89FD89B082C6
:100A1000EA89FB89808180618083EA89FB89808102
:100A200088608083EA89FB89808180688083EA8985
:100A3000FB8980818F7D8083DF91CF91FF90EF9044
:100A4000DF90CF90BF9008951F920F920FB60F9234
:100A500011242F938F939F93EF93FF93E0912302A1
:100A6000F09124028081E0912902F0912A0282FD16
:100A700012C0908180912C028F5F8F7320912D0284
:100A8000821751F0E0912C02F0E0ED5EFD4F958F62
:100A900080932C0201C08081FF91EF919F918F91F3
:100AA0002F910F900FBE0F901F9018951F920F92CD
:100AB0000FB60F9211242F933F934F935F936F9331
:100AC0007F938F939F93AF93BF93EF93FF9383E1B4
:100AD00092E00E941A04FF91EF91BF91AF919F9114
:100AE0008F917F916F915F914F913F912F910F90D7
:100AF0000FBE0F901F90189583E192E00E94DF03D4
:100B000021E0892B09F420E0822F0895109216022B
:100B10001092150288EE93E0A0E0B0E080931702F7
:100B200090931802A0931902B0931A028CE791E0F7
:100B3000909314028093130285EC90E0909320022E
:100B400080931F0284EC90E0909322028093210214
:100B500080EC90E0909324028093230281EC90E05B
:100B6000909326028093250282EC90E090932802D5
:100B70008093270286EC90E090932A0280932902CA
:100B800010922C0210922D0210922E0210922F021F
:100B90000895CF92DF92EF92FF920F931F93CF931E
:100BA000DF936C017A01EB01E60EF71E00E010E026
:100BB000CE15DF0561F06991D601ED91FC910190B0
:100BC000F081E02DC6010995080F191FF1CFC8016A
:100BD000DF91CF911F910F91FF90EF90DF90CF9019
:100BE00008956115710581F0DB010D900020E9F792
:100BF000AD0141505109461B570BDC01ED91FC91B1
:100C00000280F381E02D099480E090E008950C9437
:100C1000F105DC01ED91FC910190F081E02D09944A
:100C20000F931F93CF93DF93EC016DE00E940906B1
:100C30008C016AE0CE010E940906800F911FDF91AE
:100C4000CF911F910F9108958F929F92AF92BF9273
:100C5000CF92DF92EF92FF920F931F93CF93DF9388
:100C6000CDB7DEB7A1970FB6F894DEBF0FBECDBFEC
:100C70007C01C42EE52FCB01D22E19A221E02D1527
:100C800010F02AE0D22E8E010F5D1F4F8D2C912C7B
:100C9000A12CB12C6C2D7E2FA50194010E9459131B
:100CA0008C2DD29E80191124015011098A3014F420
:100CB000805D01C0895CF801808321153105410503
:100CC000510521F0C22EE32FCA01E4CFB801C701BC
:100CD0000E94F105A1960FB6F894DEBF0FBECDBFFE
:100CE000DF91CF911F910F91FF90EF90DF90CF9008
:100CF000BF90AF909F908F900895CF92DF92EF9228
:100D0000FF920F931F93CF93DF93EC016A017B0156
:100D10002115310579F4E881F9810190F081E02D08
:100D2000642FDF91CF911F910F91FF90EF90DF9093
:100D3000CF9009942A303105E9F477FF1AC06DE2AB
:100D40000E9409068C0144275527BA014C195D09F8
:100D50006E097F092AE0CE010E942406800F911FB0
:100D6000DF91CF911F910F91FF90EF90DF90CF9087
:100D700008952AE0B701A601CE01DF91CF911F911E
:100D80000F91FF90EF90DF90CF900C9424069A0182
:100D9000AB01662757FD6095762F0C947D060F9367
:100DA0001F93CF93DF93EC019A01AB01662757FDA8
:100DB0006095762F0E947D068C01CE010E94100660
:100DC000800F911FDF91CF911F910F9108954F9246
:100DD0005F926F927F928F929F92AF92BF92CF92CB
:100DE000DF92EF92FF920F931F93CF93DF93EC016B
:100DF0006A017B01B22E9A01AB01C701B6010E94C4
:100E00005513882319F068E871E027C026013701DF
:100E1000E89477F82FEF3FEF4FE75FE7C301B201A8
:100E20000E94551381110DC02FEF3FEF4FE75FE791
:100E3000C301B2010E949F1118161CF46CE871E006
:100E40000CC02FEF3FEF4FE75FE4C701B6010E94F0
:100E5000EE121816ACF460E971E0CE01DF91CF918B
:100E60001F910F91FF90EF90DF90CF90BF90AF90C8
:100E70009F908F907F906F905F904F900C94F105B2
:100E80002FEF3FEF4FE75FECC701B6010E949F11C4
:100E900087FDE1CF20E030E0A901C701B6010E9443
:100EA0009F1187FF0AC06DE2CE010E9409068C01E6
:100EB000F7FAF094F7F8F09402C000E010E0A12CEB
:100EC00060E070E080E09FE3AB1441F020E030E0B0
:100ED00040E251E40E94A311A394F6CF9B01AC0120
:100EE000C701B6010E943B116B017C010E941012E8
:100EF0002B013C010E943C129B01AC01C701B601D1
:100F00000E943A116B017C012AE0B301A201CE01DB
:100F10000E942406080F191FBB2039F064E971E014
:100F2000CE010E94F105080F191F7B2C772041F19B
:100F300020E030E040E251E4C701B6010E94F21225
:100F40006B017C010E940B124B01AA2497FCA09418
:100F5000BA2C2AE030E0B501A401CE010E947D0642
:100F6000080F191FC501B4010E943E129B01AC017C
:100F7000C701B6010E943A116B017C017A94D6CF69
:100F8000C801DF91CF911F910F91FF90EF90DF90FB
:100F9000CF90BF90AF909F908F907F906F905F9019
:100FA0004F9008950C94E706FC01448355836683B3
:100FB00077830895FC01808191810C941914CF935B
:100FC000DF93EC0188819981009711F00E94191438
:100FD000198218821D821C821B821A82DF91CF9196
:100FE00008950F931F93CF93DF93EC018B016F5FF5
:100FF0007F4F888199810E94A814009731F09983CE
:1010000088831B830A8381E001C080E0DF91CF9158
:101010001F910F910895CF93DF93EC0188819981FF
:10102000892B29F08A819B818617970760F4CE016E
:101030000E94F107882341F08C819D81892B19F44E
:10104000E881F981108281E0DF91CF910895EF92DC
:10105000FF920F931F93CF93DF93EC017B018A01E3
:10106000BA010E940B08811104C0CE010E94DF0763
:1010700007C01D830C83B701888199810E94A21546
:10108000CE01DF91CF911F910F91FF90EF900895C6
:10109000FC01118210821382128215821482611562
:1010A000710559F0FB0101900020E9F7AF014150B3
:1010B0005109461B570B0C9427080895EF92FF9295
:1010C0000F931F93CF93DF93EC017B010C811D8164
:1010D0006115710511F480E016C04115510591F0BC
:1010E000040F151FB8010E940B088823A1F3288163
:1010F00039818C819D81B701820F931F0E94A215B7
:101100001D830C8381E0DF91CF911F910F91FF90A0
:10111000EF900895CF93DF9300D0CDB7DEB769830A
:101120001A8241E050E0BE016F5F7F4F0E945E086F
:101130000F900F90DF91CF910895FC0180819181F4
:10114000009711F00C94721560E070E0CB010895E7
:1011500008950E9463090E94A8080E940D01CCE036
:10116000D4E00E9491012097E1F30E940C04F9CF92
:101170001F920F920FB60F9211242F933F938F93CC
:101180009F93AF93BF938091B1029091B202A091CF
:10119000B302B091B4023091B00223E0230F2D3797
:1011A00020F40196A11DB11D05C026E8230F02966B
:1011B000A11DB11D2093B0028093B1029093B202A1
:1011C000A093B302B093B4028091B5029091B6029D
:1011D000A091B702B091B8020196A11DB11D8093F4
:1011E000B5029093B602A093B702B093B802BF9134
:1011F000AF919F918F913F912F910F900FBE0F90C4
:101200001F9018952FB7F8946091B1027091B202B7
:101210008091B3029091B4022FBF08953FB7F89424
:101220008091B5029091B602A091B702B091B80238
:1012300026B5A89B05C02F3F19F00196A11DB11D31
:101240003FBF6627782F892F9A2F620F711D811D4E
:10125000911D42E0660F771F881F991F4A95D1F7AD
:101260000895CF92DF92EF92FF92CF93DF936B01BD
:101270007C010E940E09EB01C114D104E104F104C8
:1012800089F00E9439110E940E096C1B7D0B683E8B
:10129000734090F381E0C81AD108E108F108C85101
:1012A000DC4FEACFDF91CF91FF90EF90DF90CF90AE
:1012B0000895019739F0880F991F880F991F029799
:1012C0000197F1F70895789484B5826084BD84B560
:1012D000816084BD85B5826085BD85B5816085BD31
:1012E000EEE6F0E0808181608083E1E8F0E010824A
:1012F000808182608083808181608083E0E8F0E08B
:10130000808181608083E1EBF0E080818460808374
:10131000E0EBF0E0808181608083EAE7F0E08081AB
:10132000846080838081826080838081816080830B
:101330008081806880831092C1000895833081F09D
:1013400028F4813099F08230A1F008958730A9F017
:101350008830B9F08430D1F4809180008F7D03C053
:10136000809180008F7780938000089584B58F7777
:1013700002C084B58F7D84BD08958091B0008F77C1
:1013800003C08091B0008F7D8093B0000895CF930B
:10139000DF9390E0FC01E458FF4F2491FC01E057FB
:1013A000FF4F8491882349F190E0880F991FFC0139
:1013B000E854FF4FA591B49182559F4FFC01C59110
:1013C000D4919FB7611108C0F8948C912095822325
:1013D0008C93888182230AC0623051F4F8948C91F6
:1013E000322F309583238C938881822B888304C08D
:1013F000F8948C91822B8C939FBFDF91CF910895AD
:101400000F931F93CF93DF931F92CDB7DEB7282F93
:1014100030E0F901E859FF4F8491F901E458FF4F9A
:101420001491F901E057FF4F04910023C9F088237C
:1014300021F069830E949E096981E02FF0E0EE0FA0
:10144000FF1FE255FF4FA591B4919FB7F8948C917F
:10145000611103C01095812301C0812B8C939FBF24
:101460000F90DF91CF911F910F9108950F931F93CC
:10147000CF93DF93FC011081C181D281F8948A81DE
:10148000012F009580238A838981812B8983789419
:1014900080EE91E00E945909F89489818023898324
:1014A0008A81812B8A8386E490E00E945909088111
:1014B00078948AE991E00E9459098881812329F46E
:1014C00081E08093B90280E006C0102381E009F03A
:1014D00080E01092B902DF91CF911F910F91089592
:1014E0001F93CF93DF93FC011081C181D281912F93
:1014F000909560FF12C0F8948A8189238A8389813C
:10150000812B89838AE090E00E9459098A81812B8E
:101510008A83789487E390E011C0F8948A818923C4
:101520008A838981812B898381E490E00E94590913
:101530008A81812B8A83789485E090E0DF91CF9136
:101540001F910C9459090F931F93CF93DF93FC01C4
:101550001081C181D281F8948A81012F0095802366
:101560008A838981812B898383E090E00E945909D5
:101570008981802389838A81812B8A838AE090E014
:101580000E945909C881789485E390E00E94590926
:101590001C2381E009F480E0DF91CF911F910F912E
:1015A0000895CF92DF92EF92FF920F931F93CF9304
:1015B000DF931F92CDB7DEB76C01E62E08E010E096
:1015C000FF24F39461E09F2D9E2109F460E0C601A1
:1015D00049830E94700AFF0C0150110949810115CD
:1015E000110581F741110CC0F894D6011196ED91C7
:1015F000FC91129791818C918095892381837894B5
:101600000F90DF91CF911F910F91FF90EF90DF909E
:10161000CF900895EF92FF920F931F93CF93DF9394
:101620008C01C8E0D0E0F12CEE24E394C8010E94C4
:10163000A30A8111FE28EE0C2197C1F78F2DDF91AF
:10164000CF911F910F91FF90EF900895CF92DF926D
:10165000FF920F931F93CF93DF931F92CDB7DEB707
:101660008C01F62E40E065E579830E94D10ACF2CEB
:101670007981D72E88E0F82EF60161916F0140E064
:10168000C8010E94D10AFA94B9F70F90DF91CF9167
:101690001F910F91FF90DF90CF90089540E06CEC88
:1016A0000C94D10AFC0113861586148627E030E0DD
:1016B000DF01A20FB31F13961C922115310519F0FB
:1016C00021503109F5CF08951F93CF93DF93EC019B
:1016D000162F60E0812F0E94C709612F70E0FB0187
:1016E000E458FF4FE491E883FB01E057FF4FE4919A
:1016F000F0E0EE0FFF1FEC55FF4F859194919A8318
:101700008983CE01DF91CF911F910C94520BAF9240
:10171000BF92CF92DF92EF92FF920F931F93CF93DE
:10172000DF931F92CDB7DEB75C01E62ED72EFC010A
:10173000858581115DC0C5010E94360A811105C0F1
:10174000F5011386158614866EC040E060EFC50172
:101750000E94D10A01E0F12CC12C11E0C5010E94C8
:10176000A30A682FC50169830E94A30A69816130B9
:1017700019F48130B9F433C02F2D30E068131BC049
:10178000F5018385181730F4E20FF31F838180235E
:1017900049F402C0181731F060E0193058F4F5012F
:1017A000148708C0F501EF0DF11D8381802B838321
:1017B00061E009C0C12EF501E20FF31F8381902F74
:1017C000909589238383C5010E94700A1F5F000FD3
:1017D00011F4F39401E0F7E0FF1508F0BFCF1134E6
:1017E00038F0F501C386C11018C081E0858715C0A7
:1017F000F50113861586148680E0EE2DFD2D20E080
:1018000030E0D501A20FB31F13969C9191932F5FE7
:101810003F4F28303105A9F706C0F50183818823A1
:1018200039F381E0EACF0F90DF91CF911F910F91B3
:10183000FF90EF90DF90CF90BF90AF900895DC01C4
:1018400080E0615038F0ED91E827F0E0EE53FF4F73
:101850008491F7CF08950895FC018BE29CE0928B70
:10186000818B768365831482108289E0818381E095
:10187000828383830895CF93DF93EB0167E0CE01EA
:101880000E941F0C91E02F81821390E0892FDF913D
:10189000CF910895EF92FF920F931F93CF93DF9311
:1018A00000D0CDB7DEB77C018A01FC01858196812D
:1018B00069837A830E94360A69817A81F70185817A
:1018C00096810E94260B40E06EEBF70185819681A0
:1018D0000E94D10AF701858196810E940A0BF801C6
:1018E0008083F701858196810E940A0BF80181832C
:1018F000F701858196810E940A0BF8018283F70126
:10190000858196810E940A0BF8018383F701858106
:1019100096810E940A0BF8018483F70185819681E4
:101920000E940A0BF8018583F701858196810E9448
:101930000A0BF8018683F701858196810E940A0BC4
:10194000F8018783F701858196810E940A0BF801CF
:101950008087F701858196810F900F90DF91CF915D
:101960001F910F91FF90EF900C94360ACF93DF9365
:10197000EA010E944A0C68E0CE010E941F0C91E02F
:101980002885821390E0892FDF91CF910895EF92FF
:10199000FF920F931F93CF93DF93EC017B018A019A
:1019A0008D819E810E94360AB7018D819E810E94A1
:1019B000260B40E06EE48D819E810E94D10A40E0BA
:1019C000F80162818D819E810E94D10A40E0F80178
:1019D00063818D819E810E94D10AF70180818031CF
:1019E00039F040E0F80164818D819E810E94D10A26
:1019F0008D819E810E94360A488168E48D819E8196
:101A00000E94D10A8881882331F06AE070E080E08A
:101A100090E00E9431098D819E81DF91CF911F91CD
:101A20000F91FF90EF900C94360AEF92FF921F9364
:101A3000CF93DF9300D0CDB7DEB77C01FC01858169
:101A4000968169837A830E94360A69817A81F701D7
:101A5000858196810E94260B40E064EBF701858129
:101A600096810E94D10AF701858196810E94A30A7E
:101A7000182FF701858196810E94360A81E01111A5
:101A800080E00F900F90DF91CF911F91FF90EF902A
:101A90000895EF92FF920F931F93CF93DF93CDB7EB
:101AA000DEB72A970FB6F894DEBF0FBECDBF7C011C
:101AB0008B01242FAE014F5F5F4F2A870E94B60C27
:101AC0002A858823D1F0F80180818031C1F02B3044
:101AD00041F02C3021F02A3031F48FE305C08FE73C
:101AE00003C08FE501C08FE18D83AE014F5F5F4F73
:101AF000B801C7010E94C70C02C080E001C081E0AC
:101B00002A960FB6F894DEBF0FBECDBFDF91CF91FE
:101B10001F910F91FF90EF900895CF93DF93CDB772
:101B2000DEB729970FB6F894DEBF0FBECDBFFB011D
:101B300020812031D1F0AE014F5F5F4F0E94B60C83
:101B4000882379F08D818F3351F018F48F3169F04B
:101B500008C08F3541F08F3721F48CE007C08AE050
:101B600005C080E003C08BE001C089E029960FB674
:101B7000F894DEBF0FBECDBFDF91CF910895EF92F5
:101B8000FF920F931F93CF93DF93CDB7DEB761978B
:101B90000FB6F894DEBF0FBECDBF8C01FC0185816E
:101BA00096810E94520BF8011482FF24F394BE0127
:101BB000665F7F4FF801858196810E94870B88239D
:101BC000C9F1BE01665F7F4FC8010E943B0C8823AC
:101BD00071F3F8018081811108C0BE01665F7F4FFB
:101BE000C8010E94150D811122C0AE014F5F5F4FE9
:101BF000BE01665F7F4FC8010E944A0CF801E18078
:101C0000BE01665F7F4FC8010E948D0D8E1518F4CE
:101C1000F801818106C0BE01665F7F4FC8010E9446
:101C20008D0DF801818384818F5F8483C0CFF8019B
:101C3000F082DBCF61960FB6F894DEBF0FBECDBF4A
:101C4000DF91CF911F910F91FF90EF900895CF9367
:101C5000DF93CDB7DEB729970FB6F894DEBF0FBE7E
:101C6000CDBFAE014F5F5F4F0E944A0C81E099816A
:101C7000911101C080E029960FB6F894DEBF0FBE27
:101C8000CDBFDF91CF910895CF92DF92EF92FF9277
:101C90000F931F93CF93DF93EC018B01452BE1F062
:101CA0008B818823C9F08881811116C00E940209A6
:101CB0006B017C0160E070E0CE010E94270E811173
:101CC0000BC00E9402096C197D098E099F096E3EA6
:101CD00072408105910570F3F80180818A3049F0E6
:101CE0008B3061F0893079F46EE570E080E090E04F
:101CF0000EC06CEB70E080E090E009C067E771E037
:101D000080E090E004C06EEE72E080E090E0DF9151
:101D1000CF911F910F91FF90EF90DF90CF900C9497
:101D20003109CF93DF93EC018D819E810E94360AA9
:101D30008D819E810E944E0B488164E48D819E813D
:101D40000E94D10A8A81882351F0BE016F5F7F4FC4
:101D500040E050E0CE01DF91CF910C94440EDF9132
:101D6000CF9108958F929F92AF92BF92CF92DF92C0
:101D7000EF92FF921F93CF93DF93FB01EA016981FA
:101D800070E0762F66278881682B80818232B1F1DE
:101D90008832A1F1803109F078C01F81759567956F
:101DA000882777FD8095982F0E943E1220E030E032
:101DB00040E85EE30E943A116B017C01612F70E004
:101DC0008E81681B7109882777FD8095982F0E9466
:101DD0003E124B015C01612F70E080E090E00E94B8
:101DE0003C129B01AC01C501B4010E94A3119B01EF
:101DF000AC01C701B6010E943B1143C08C818F33F7
:101E000081F198F48F3109F040C093E075956795A2
:101E10009A95E1F7882777FD8095982F0E943E12CA
:101E200020E030E040E05FE32AC08F3569F08F3773
:101E300061F5882777FD8095982F0E943E1220E05B
:101E400030E040E85DE31BC075956795882777FD16
:101E50008095982F0E943E1220E030E040E05EE343
:101E60000EC07595679575956795882777FD809560
:101E7000982F0E943E1220E030E040E85EE30E948E
:101E8000F212562F472F382F292F652F742F832FAB
:101E9000922FDF91CF911F91FF90EF90DF90CF9025
:101EA000BF90AF909F908F900895EF92FF920F9305
:101EB0001F93CF93DF93CDB7DEB729970FB6F89472
:101EC000DEBF0FBECDBF8C017B01AE014F5F5F4F08
:101ED0000E94B60C882341F0AE014F5F5F4FB701FF
:101EE000C8010E94B20E04C060E070E08EEF92EC78
:101EF00029960FB6F894DEBF0FBECDBFDF91CF910C
:101F00001F910F91FF90EF900895CF93DF93EC0115
:101F100060E08E810E94000A81E090E00E945909F1
:101F200061E08E810E94000A81E090E00E945909E0
:101F300060E08E810E94000A84E690E0DF91CF91FC
:101F40000C945909CF92DF92EF92FF920F931F9357
:101F5000CF93DF937C01C0E0D0E0C62ED12C870167
:101F60000C0F1D1F61E0F80187810E94C709B601AF
:101F70000C2E02C0759567950A94E2F76170F8011E
:101F800087810E94000A2196C430D10541F7C7011C
:101F9000DF91CF911F910F91FF90EF90DF90CF9045
:101FA0000C94850FCF92DF92EF92FF920F931F93C5
:101FB000CF93DF937C01C0E0D0E0C62ED12C870107
:101FC0000C0F1D1F61E0F80187810E94C709B6014F
:101FD0000C2E02C0759567950A94E2F76170F801BE
:101FE00087810E94000A2196C830D10541F7C701B8
:101FF000DF91CF911F910F91FF90EF90DF90CF90E5
:102000000C94850F1F93CF93DF93EC01162F642F51
:102010008C810E94000A8D818F3F19F060E00E9440
:10202000000A8F85612F84FF06C0CE01DF91CF911A
:102030001F910C94D20F70E084E0759567958A9596
:10204000E1F7CE010E94A20F612FCE01DF91CF9167
:102050001F910C94A20F40E00C94021061E00E94CA
:102060002B1080ED97E00C945909443008F043E0C0
:10207000FC012389421710F04FEF420FFC01E40FDF
:10208000F11D2489260F2068622F0C942B10FC016F
:102090006089262F2460208B6C600C942B10CF93CA
:1020A000DF93EC01423018F08F8588608F874B8B6F
:1020B0001C8A80E48D8B6E8B70E0605C7F4F6F8B31
:1020C000222329F0413019F48F8584608F8780E5C1
:1020D00093EC0E94590960E08C810E94000A60E044
:1020E0008E810E94000A8D818F3F19F060E00E946E
:1020F000000A6F8564FD1DC063E0CE010E94A20F3F
:1021000084E991E10E94590963E0CE010E94A20F87
:1021100084E991E10E94590963E0CE010E94A20F77
:1021200086E990E00E94590962E0CE010E94A20F68
:1021300016C06062CE010E942B1084E991E10E94DA
:1021400059096F856062CE010E942B1086E990E0EC
:102150000E9459096F856062CE010E942B106F8525
:102160006062CE010E942B1084E0888BCE010E9419
:102170004710CE010E942E1082E0898B66E0CE01CE
:10218000DF91CF910C942B106F927F928F92AF9230
:10219000CF92EF920F931F93CF93DF93CDB7DEB71C
:1021A0003C01162F842F5D854E853F859889F3016C
:1021B000848325830683E782C086A186828653872F
:1021C00044873587968761E00E94C709F3018581BE
:1021D0008F3F19F061E00E94C70961E0F301868139
:1021E0000E94C709112319F0F301178603C080E18B
:1021F000F301878720E041E060E1C301DF91CF91E7
:102200001F910F91EF90CF90AF908F907F906F9034
:102210000C944F108F92AF92CF92EF920F93DC01FC
:1022200013961C921E921297EAE9F1E0ED93FC934B
:102230001F921F921F921F928C2CAE2CC02EE22E4A
:10224000042F2FEF462F61E00E94C4100F900F90D3
:102250000F900F900F91EF90CF90AF908F900895C7
:102260006CE10C942B1041E00E94021081E090E0A0
:10227000089508955058BB27AA270ED075C166D17E
:1022800030F06BD120F031F49F3F11F41EF45BC1AC
:102290000EF4E095E7FB51C1E92F77D180F3BA172F
:1022A000620773078407950718F071F49EF58FC1D4
:1022B0000EF4E0950B2EBA2FA02D0B01B901900161
:1022C0000C01CA01A0011124FF27591B99F0593FA5
:1022D00050F4503E68F11A16F040A22F232F342FED
:1022E0004427585FF3CF469537952795A795F0403B
:1022F0005395C9F77EF41F16BA0B620B730B840B50
:10230000BAF09150A1F0FF0FBB1F661F771F881F07
:10231000C2F70EC0BA0F621F731F841F48F487955F
:1023200077956795B795F7959E3F08F0B3CF93954E
:10233000880F08F09927EE0F979587950895D9D0C3
:1023400008F481E008950CD00FC107D140F0FED011
:1023500030F021F45F3F19F0F0C0511139C1F3C0E2
:1023600014D198F39923C9F35523B1F3951B550B59
:10237000BB27AA2762177307840738F09F5F5F4F58
:10238000220F331F441FAA1FA9F333D00E2E3AF099
:10239000E0E830D091505040E695001CCAF729D0B3
:1023A000FE2F27D0660F771F881FBB1F2617370702
:1023B0004807AB07B0E809F0BB0B802DBF01FF2732
:1023C00093585F4F2AF09E3F510568F0B6C000C198
:1023D0005F3FECF3983EDCF3869577956795B7956C
:1023E000F7959F5FC9F7880F911D9695879597F987
:1023F0000895E1E0660F771F881FBB1F6217730700
:102400008407BA0720F0621B730B840BBA0BEE1F14
:1024100088F7E095089504D06894B111D9C0089563
:10242000BCD088F09F5790F0B92F9927B751A0F0F2
:10243000D1F0660F771F881F991F1AF0BA95C9F758
:1024400012C0B13081F0C3D0B1E00895C0C0672F91
:10245000782F8827B85F39F0B93FCCF38695779508
:102460006795B395D9F73EF49095809570956195F1
:102470007F4F8F4F9F4F0895E89409C097FB3EF41C
:1024800090958095709561957F4F8F4F9F4F9923C1
:10249000A9F0F92F96E9BB279395F695879577953F
:1024A0006795B795F111F8CFFAF4BB0F11F460FFFF
:1024B0001BC06F5F7F4F8F4F9F4F16C0882311F057
:1024C00096E911C0772321F09EE8872F762F05C06B
:1024D000662371F096E8862F70E060E02AF09A9506
:1024E000660F771F881FDAF7880F9695879597F9FB
:1024F0000895990F0008550FAA0BE0E8FEEF161695
:102500001706E807F907C0F012161306E407F507E7
:1025100098F0621B730B840B950B39F40A2661F05B
:10252000232B242B252B21F408950A2609F4A140FE
:10253000A6958FEF811D811D089597F99F6780E80B
:1025400070E060E008959FEF80EC089500240A9405
:102550001616170618060906089500240A9412167E
:102560001306140605060895092E0394000C11F4B1
:10257000882352F0BB0F40F4BF2B11F460FF04C05E
:102580006F5F7F4F8F4F9F4F089557FD9058440FB7
:10259000551F59F05F3F71F04795880F97FB991FC2
:1025A00061F09F3F79F0879508951216130614067F
:1025B000551FF2CF4695F1DF08C01616170618060C
:1025C000991FF1CF86957105610508940895E894E7
:1025D000BB2766277727CB0197F908958ADF08F490
:1025E0008FEF08950BD0C0CFB1DF28F0B6DF18F021
:1025F000952309F0A2CFA7CF1124EACFC6DFA0F31D
:10260000959FD1F3950F50E0551F629FF001729F87
:10261000BB27F00DB11D639FAA27F00DB11DAA1FA6
:10262000649F6627B00DA11D661F829F2227B00DF3
:10263000A11D621F739FB00DA11D621F839FA00D7E
:10264000611D221F749F3327A00D611D231F849FCE
:10265000600D211D822F762F6A2F11249F57504025
:102660008AF0E1F088234AF0EE0FFF1FBB1F661FC0
:10267000771F881F91505040A9F79E3F510570F079
:102680005CCFA6CF5F3FECF3983EDCF38695779561
:102690006795B795F795E7959F5FC1F7FE2B880F74
:1026A000911D9695879597F9089523DF880B990BCF
:1026B0000895A1E21A2EAA1BBB1BFD010DC0AA1F83
:1026C000BB1FEE1FFF1FA217B307E407F50720F09B
:1026D000A21BB30BE40BF50B661F771F881F991F16
:1026E0001A9469F760957095809590959B01AC015F
:1026F000BD01CF010895EE0FFF1F0590F491E02D6D
:102700000994CF93DF938230910510F482E090E03A
:10271000E091BC02F091BD0220E030E0A0E0B0E02A
:10272000309739F14081518148175907B8F048175F
:10273000590771F482819381109729F013969C9325
:102740008E9312972CC09093BD028093BC0227C039
:102750002115310531F04217530718F0A901DB01AB
:1027600001C0EF019A01BD01DF010280F381E02D7C
:10277000D7CF21153105F9F0281B390B243031054D
:1027800080F48A819B816115710521F0FB0193839F
:10279000828304C09093BD028093BC02FE013296F6
:1027A00044C0FE01E20FF31F81939193225031093F
:1027B000398328833AC02091BA023091BB02232B7F
:1027C00041F420910201309103013093BB02209328
:1027D000BA0220910001309101012115310541F427
:1027E0002DB73EB74091040150910501241B350BD4
:1027F000E091BA02F091BB02E217F307A0F42E1B9E
:102800003F0B2817390778F0AC014E5F5F4F241754
:10281000350748F04E0F5F1F5093BB024093BA023A
:102820008193919302C0E0E0F0E0CF01DF91CF917E
:102830000895CF93DF93009709F487C0FC01329786
:1028400013821282C091BC02D091BD02209781F404
:1028500020813181280F391F8091BA029091BB02EB
:102860008217930779F5F093BB02E093BA026DC02B
:10287000DE0120E030E0AE17BF0750F412964D9114
:102880005C9113979D014115510509F1DA01F3CFD0
:10289000B383A28340815181840F951F8A179B07C0
:1028A00071F48D919C911197840F951F02969183DD
:1028B000808312968D919C91139793838283211527
:1028C000310529F4F093BD02E093BC023EC0D9016A
:1028D0001396FC93EE9312974D915D91A40FB51F43
:1028E000EA17FB0779F480819181840F951F029686
:1028F000D90111969C938E938281938113969C9318
:102900008E931297E0E0F0E08A819B81009719F0A6
:10291000FE01EC01F9CFCE01029628813981820FA8
:10292000931F2091BA023091BB022817390769F42E
:10293000309729F41092BD021092BC0202C013829B
:102940001282D093BB02C093BA02DF91CF91089557
:10295000A0E0B0E0EEEAF4E10C94C215EC01CB018A
:10296000209719F40E948113B8C0FE01E60FF71FEB
:102970009E0122503109E217F30708F4ACC0D901D7
:102980000D911C91119706171707B8F00530110526
:1029900008F49FC0A801445051094617570708F48E
:1029A00098C002501109061B170B019311936D93E8
:1029B0007C93CF010E9419148CC05B01A01AB10A4C
:1029C0004E01800E911EA091BC02B091BD02612CFF
:1029D000712C60E070E0109709F449C0A815B905A2
:1029E000C9F5ED90FC901197670142E0C40ED11C2F
:1029F000CA14DB0478F147018A189B08640142E09D
:102A0000C40ED11C1296BC9012971396AC91B5E0EF
:102A1000CB16D10440F0B282A38391828082D90187
:102A20008D939C9309C00E5F1F4F0E0D1F1DF90162
:102A300011830083EB2DFA2F6115710531F0DB0155
:102A40001396FC93EE93129744C0F093BD02E0936B
:102A5000BC023FC06D917C9111976616770608F411
:102A60003B01BD0112960D90BC91A02DB4CF609199
:102A7000BA027091BB0268157905E9F46816790607
:102A8000D0F440910001509101014115510541F4EC
:102A90004DB75EB76091040170910501461B570B5D
:102AA000E417F507C0F4F093BB02E093BA02F90112
:102AB000918380830EC00E9481137C01009759F09E
:102AC000A801BE010E949915CE010E941914C701E8
:102AD00004C0CE0102C080E090E0CDB7DEB7EEE0EA
:102AE0000C94DE151F93FC0199278827BC01E894FC
:102AF00011911032E9F3193010F01E30C8F31B3277
:102B000051F01D3249F4689406C00E94A915610F66
:102B1000711D811D911D119110531A30B0F33EF4B7
:102B200090958095709561957F4F8F4F9F4F1F9126
:102B30000895FB01DC0102C001900D92415050400C
:102B4000D8F70895FB01DC0101900D920020E1F718
:102B50000895592F482F372F262F660F771F881F6C
:102B6000991F660F771F881F991F620F731F841F9D
:102B7000951F660F771F881F991F08952F923F9208
:102B80004F925F926F927F928F929F92AF92BF927D
:102B9000CF92DF92EF92FF920F931F93CF93DF9329
:102BA000CDB7DEB7CA1BDB0B0FB6F894DEBF0FBE86
:102BB000CDBF09942A88398848885F846E847D84D3
:102BC0008C849B84AA84B984C884DF80EE80FD80D5
:102BD0000C811B81AA81B981CE0FD11D0FB6F8944B
:0E2BE000DEBF0FBECDBFED010895F894FFCF0C
:102BEE000000BE028000DC0500003075000020A150
:102BFE000700010001000B000A0063006300630080
:102C0E0063006300630028FFB5806314037828FF18
:102C1E003471681404C254656D7065726174757296
:102C2E006120656E206665726D656E7461646F728B
:102C3E0020004665726D656E7461646F723A200095
:102C4E00430054656D7065726174757261207365B1
:102C5E0074656164613A2000000000005D04C905DE
:102C6E00DF03F803EA033B046E616E00696E6600D3
:0E2C7E006F7666002E00000000003311C905BD
:00000001FF
